{
  "contractName": "Voting",
  "abi": [
    {
      "inputs": [],
      "name": "candidateCount",
      "outputs": [
        {
          "internalType": "uint256",
          "name": "",
          "type": "uint256"
        }
      ],
      "stateMutability": "view",
      "type": "function",
      "constant": true
    },
    {
      "inputs": [
        {
          "internalType": "uint256",
          "name": "",
          "type": "uint256"
        }
      ],
      "name": "candidates",
      "outputs": [
        {
          "internalType": "string",
          "name": "name",
          "type": "string"
        },
        {
          "internalType": "string",
          "name": "party",
          "type": "string"
        },
        {
          "internalType": "string",
          "name": "position",
          "type": "string"
        },
        {
          "internalType": "uint256",
          "name": "voteCount",
          "type": "uint256"
        }
      ],
      "stateMutability": "view",
      "type": "function",
      "constant": true
    },
    {
      "inputs": [
        {
          "internalType": "uint256",
          "name": "",
          "type": "uint256"
        },
        {
          "internalType": "string",
          "name": "",
          "type": "string"
        }
      ],
      "name": "hasVotedForPosition",
      "outputs": [
        {
          "internalType": "bool",
          "name": "",
          "type": "bool"
        }
      ],
      "stateMutability": "view",
      "type": "function",
      "constant": true
    },
    {
      "inputs": [
        {
          "internalType": "uint256",
          "name": "",
          "type": "uint256"
        }
      ],
      "name": "registeredVoterIDs",
      "outputs": [
        {
          "internalType": "uint256",
          "name": "",
          "type": "uint256"
        }
      ],
      "stateMutability": "view",
      "type": "function",
      "constant": true
    },
    {
      "inputs": [
        {
          "internalType": "uint256",
          "name": "",
          "type": "uint256"
        }
      ],
      "name": "registeredVoters",
      "outputs": [
        {
          "internalType": "bool",
          "name": "",
          "type": "bool"
        }
      ],
      "stateMutability": "view",
      "type": "function",
      "constant": true
    },
    {
      "inputs": [
        {
          "internalType": "uint256",
          "name": "",
          "type": "uint256"
        }
      ],
      "name": "voterVotes",
      "outputs": [
        {
          "internalType": "uint256",
          "name": "",
          "type": "uint256"
        }
      ],
      "stateMutability": "view",
      "type": "function",
      "constant": true
    },
    {
      "inputs": [
        {
          "internalType": "string",
          "name": "_name",
          "type": "string"
        },
        {
          "internalType": "string",
          "name": "_party",
          "type": "string"
        },
        {
          "internalType": "string",
          "name": "_position",
          "type": "string"
        }
      ],
      "name": "addCandidate",
      "outputs": [
        {
          "internalType": "bool",
          "name": "success",
          "type": "bool"
        }
      ],
      "stateMutability": "nonpayable",
      "type": "function"
    },
    {
      "inputs": [
        {
          "internalType": "uint256",
          "name": "_voterID",
          "type": "uint256"
        }
      ],
      "name": "registerVoter",
      "outputs": [],
      "stateMutability": "nonpayable",
      "type": "function"
    },
    {
      "inputs": [
        {
          "internalType": "uint256",
          "name": "voterID",
          "type": "uint256"
        },
        {
          "internalType": "uint256",
          "name": "candidateId",
          "type": "uint256"
        }
      ],
      "name": "vote",
      "outputs": [
        {
          "internalType": "bool",
          "name": "success",
          "type": "bool"
        }
      ],
      "stateMutability": "nonpayable",
      "type": "function"
    },
    {
      "inputs": [
        {
          "internalType": "uint256",
          "name": "candidateId",
          "type": "uint256"
        }
      ],
      "name": "getCandidate",
      "outputs": [
        {
          "internalType": "string",
          "name": "name",
          "type": "string"
        },
        {
          "internalType": "string",
          "name": "party",
          "type": "string"
        },
        {
          "internalType": "string",
          "name": "position",
          "type": "string"
        },
        {
          "internalType": "uint256",
          "name": "voteCount",
          "type": "uint256"
        }
      ],
      "stateMutability": "view",
      "type": "function",
      "constant": true
    },
    {
      "inputs": [
        {
          "internalType": "uint256",
          "name": "voterID",
          "type": "uint256"
        },
        {
          "internalType": "string",
          "name": "position",
          "type": "string"
        }
      ],
      "name": "checkIfVotedForPosition",
      "outputs": [
        {
          "internalType": "bool",
          "name": "",
          "type": "bool"
        }
      ],
      "stateMutability": "view",
      "type": "function",
      "constant": true
    },
    {
      "inputs": [],
      "name": "getRegisteredVoters",
      "outputs": [
        {
          "internalType": "uint256[]",
          "name": "",
          "type": "uint256[]"
        }
      ],
      "stateMutability": "view",
      "type": "function",
      "constant": true
    },
    {
      "inputs": [
        {
          "internalType": "uint256",
          "name": "voterID",
          "type": "uint256"
        }
      ],
      "name": "getVoterVote",
      "outputs": [
        {
          "internalType": "uint256",
          "name": "",
          "type": "uint256"
        }
      ],
      "stateMutability": "view",
      "type": "function",
      "constant": true
    },
    {
      "inputs": [],
      "name": "getTotalVoterCount",
      "outputs": [
        {
          "internalType": "uint256",
          "name": "",
          "type": "uint256"
        }
      ],
      "stateMutability": "view",
      "type": "function",
      "constant": true
    }
  ],
  "bytecode": "0x608060405234801561001057600080fd5b5061108a806100206000396000f3fe608060405234801561001057600080fd5b50600436106100ea5760003560e01c8063767847091161008c578063ad71f8dc11610066578063ad71f8dc146101ce578063b384abef146101e1578063d654c6bc146101f4578063e0dd31b314610207576100ea565b8063767847091461019e578063a13f2f8d146101b1578063a9a981a3146101c6576100ea565b806335b8e820116100c857806335b8e82014610150578063546dbe03146101635780635c99a4bc1461017657806367a5139614610196576100ea565b80632436e06b146100ef5780632bc4a6e7146101185780633477ee2e1461012d575b600080fd5b6101026100fd366004610c17565b61021a565b60405161010f9190610dbc565b60405180910390f35b61012061022f565b60405161010f9190610d78565b61014061013b366004610c17565b610287565b60405161010f9493929190610dc7565b61014061015e366004610c17565b610447565b610102610171366004610c2f565b610672565b610189610184366004610c17565b6106a3565b60405161010f9190610f97565b6101896106c4565b6101896101ac366004610c17565b6106ca565b6101c46101bf366004610c17565b6106dc565b005b610189610776565b6101026101dc366004610b93565b61077c565b6101026101ef366004610c74565b610921565b610189610202366004610c17565b610a30565b610102610215366004610c2f565b610a42565b60016020526000908152604090205460ff1681565b6060600580548060200260200160405190810160405280929190818152602001828054801561027d57602002820191906000526020600020905b815481526020019060010190808311610269575b5050505050905090565b6000602081905290815260409020805481906102a290610fdc565b80601f01602080910402602001604051908101604052809291908181526020018280546102ce90610fdc565b801561031b5780601f106102f05761010080835404028352916020019161031b565b820191906000526020600020905b8154815290600101906020018083116102fe57829003601f168201915b50505050509080600101805461033090610fdc565b80601f016020809104026020016040519081016040528092919081815260200182805461035c90610fdc565b80156103a95780601f1061037e576101008083540402835291602001916103a9565b820191906000526020600020905b81548152906001019060200180831161038c57829003601f168201915b5050505050908060020180546103be90610fdc565b80601f01602080910402602001604051908101604052809291908181526020018280546103ea90610fdc565b80156104375780601f1061040c57610100808354040283529160200191610437565b820191906000526020600020905b81548152906001019060200180831161041a57829003601f168201915b5050505050908060030154905084565b6060806060600060045485106104785760405162461bcd60e51b815260040161046f90610e49565b60405180910390fd5b60008581526020819052604080822081516080810190925280548290829061049f90610fdc565b80601f01602080910402602001604051908101604052809291908181526020018280546104cb90610fdc565b80156105185780601f106104ed57610100808354040283529160200191610518565b820191906000526020600020905b8154815290600101906020018083116104fb57829003601f168201915b5050505050815260200160018201805461053190610fdc565b80601f016020809104026020016040519081016040528092919081815260200182805461055d90610fdc565b80156105aa5780601f1061057f576101008083540402835291602001916105aa565b820191906000526020600020905b81548152906001019060200180831161058d57829003601f168201915b505050505081526020016002820180546105c390610fdc565b80601f01602080910402602001604051908101604052809291908181526020018280546105ef90610fdc565b801561063c5780601f106106115761010080835404028352916020019161063c565b820191906000526020600020905b81548152906001019060200180831161061f57829003601f168201915b50505091835250506003919091015460209182015281519082015160408301516060909301519199909850919650945092505050565b6002602090815260009283526040909220815180830184018051928152908401929093019190912091525460ff1681565b600581815481106106b357600080fd5b600091825260209091200154905081565b60055490565b60036020526000908152604090205481565b60008181526001602052604090205460ff161561070b5760405162461bcd60e51b815260040161046f90610f62565b6000811161072b5760405162461bcd60e51b815260040161046f90610e12565b60008181526001602081905260408220805460ff1916821790556005805491820181559091527f036b6384b5eca791c62761152d0c79bb0604c104a5fb6f4eb0703f3154bb3db00155565b60045481565b6000805b600454811015610879578260405160200161079b9190610cc1565b60408051601f19818403018152828252805160209182012060008581528083529290922091926107cf926002019101610cdd565b6040516020818303038152906040528051906020012014801561084a5750836040516020016107fe9190610cc1565b60408051601f1981840301815282825280516020918201206000858152808352929092209192610832926001019101610cdd565b60405160208183030381529060405280519060200120145b156108675760405162461bcd60e51b815260040161046f90610ef8565b8061087181611017565b915050610780565b5060408051608081018252858152602080820186905281830185905260006060830181905260045481528082529290922081518051929391926108bf9284920190610a79565b5060208281015180516108d89260018501920190610a79565b50604082015180516108f4916002840191602090910190610a79565b50606091909101516003909101556004805490600061091283611017565b90915550600195945050505050565b60008281526001602052604081205460ff1661094f5760405162461bcd60e51b815260040161046f90610e80565b60045482106109705760405162461bcd60e51b815260040161046f90610e49565b600082815260208181526040808320868452600292839052928190209051909161099d9190840190610cdd565b9081526040519081900360200190205460ff16156109cd5760405162461bcd60e51b815260040161046f90610eb0565b6000848152600360209081526040808320869055600291829052918290209151600192916109fe9190850190610cdd565b908152604051908190036020019020805491151560ff1990921691909117905560038101805490600061091283611017565b60009081526003602052604090205490565b6000828152600260205260408082209051610a5e908490610cc1565b9081526040519081900360200190205460ff16905092915050565b828054610a8590610fdc565b90600052602060002090601f016020900481019282610aa75760008555610aed565b82601f10610ac057805160ff1916838001178555610aed565b82800160010185558215610aed579182015b82811115610aed578251825591602001919060010190610ad2565b50610af9929150610afd565b5090565b5b80821115610af95760008155600101610afe565b600082601f830112610b22578081fd5b813567ffffffffffffffff80821115610b3d57610b3d61103e565b604051601f8301601f191681016020018281118282101715610b6157610b6161103e565b604052828152848301602001861015610b78578384fd5b82602086016020830137918201602001929092529392505050565b600080600060608486031215610ba7578283fd5b833567ffffffffffffffff80821115610bbe578485fd5b610bca87838801610b12565b94506020860135915080821115610bdf578384fd5b610beb87838801610b12565b93506040860135915080821115610c00578283fd5b50610c0d86828701610b12565b9150509250925092565b600060208284031215610c28578081fd5b5035919050565b60008060408385031215610c41578182fd5b82359150602083013567ffffffffffffffff811115610c5e578182fd5b610c6a85828601610b12565b9150509250929050565b60008060408385031215610c86578182fd5b50508035926020909101359150565b60008151808452610cad816020860160208601610fac565b601f01601f19169290920160200192915050565b60008251610cd3818460208701610fac565b9190910192915050565b8154600090819060028104600180831680610cf957607f831692505b6020808410821415610d1957634e487b7160e01b87526022600452602487fd5b818015610d2d5760018114610d3e57610d6a565b60ff19861689528489019650610d6a565b610d478a610fa0565b885b86811015610d625781548b820152908501908301610d49565b505084890196505b509498975050505050505050565b6020808252825182820181905260009190848201906040850190845b81811015610db057835183529284019291840191600101610d94565b50909695505050505050565b901515815260200190565b600060808252610dda6080830187610c95565b8281036020840152610dec8187610c95565b90508281036040840152610e008186610c95565b91505082606083015295945050505050565b6020808252601f908201527f566f746572204944206d7573742062652067726561746572207468616e203000604082015260600190565b60208082526018908201527f43616e64696461746520646f6573206e6f742065786973740000000000000000604082015260600190565b602080825260169082015275165bdd48185c99481b9bdd081c9959da5cdd195c995960521b604082015260600190565b60208082526028908201527f596f75206861766520616c726561647920766f74656420666f722074686973206040820152673837b9b4ba34b7b760c11b606082015260800190565b60208082526044908201527f412063616e6469646174652066726f6d207468652073616d652070617274792060408201527f697320616c72656164792072756e6e696e6720666f72207468697320706f73696060820152633a34b7b760e11b608082015260a00190565b6020808252818101527f5468697320766f74657220697320616c72656164792072656769737465726564604082015260600190565b90815260200190565b60009081526020902090565b60005b83811015610fc7578181015183820152602001610faf565b83811115610fd6576000848401525b50505050565b600281046001821680610ff057607f821691505b6020821081141561101157634e487b7160e01b600052602260045260246000fd5b50919050565b600060001982141561103757634e487b7160e01b81526011600452602481fd5b5060010190565b634e487b7160e01b600052604160045260246000fdfea26469706673582212207b04e8392a0be7172ff200434d2c73adf45dd357c9644a7ea7dea0173ec1b9d164736f6c63430008000033",
  "immutableReferences": {},
  "source": "// SPDX-License-Identifier: MIT\r\npragma solidity ^0.8.0;\r\n\r\ncontract Voting {\r\n\r\n    struct CandidateInfo {\r\n        string name;\r\n        string party;\r\n        string position;\r\n        uint256 voteCount;\r\n    }\r\n\r\n    mapping(uint256 => CandidateInfo) public candidates;\r\n    mapping(uint256 => bool) public registeredVoters;\r\n    mapping(uint256 => mapping(string => bool)) public hasVotedForPosition;\r\n    mapping(uint256 => uint256) public voterVotes;  // Mapping to store which candidate a voter voted for\r\n    uint256 public candidateCount;\r\n\r\n    // List of registered voter IDs\r\n    uint256[] public registeredVoterIDs;\r\n\r\n    function addCandidate(\r\n        string memory _name,\r\n        string memory _party,\r\n        string memory _position\r\n    ) public returns (bool success) {\r\n        for (uint256 i = 0; i < candidateCount; i++) {\r\n            require(\r\n                !(keccak256(abi.encodePacked(candidates[i].position)) == \r\n                    keccak256(abi.encodePacked(_position)) &&\r\n                    keccak256(abi.encodePacked(candidates[i].party)) == \r\n                    keccak256(abi.encodePacked(_party))),\r\n                \"A candidate from the same party is already running for this position\"\r\n            );\r\n        }\r\n\r\n        candidates[candidateCount] = CandidateInfo({\r\n            name: _name,\r\n            party: _party,\r\n            position: _position,\r\n            voteCount: 0\r\n        });\r\n\r\n        candidateCount++;\r\n        return true;\r\n    }\r\n\r\n    function registerVoter(uint256 _voterID) public {\r\n        require(!registeredVoters[_voterID], \"This voter is already registered\");\r\n        require(_voterID > 0, \"Voter ID must be greater than 0\");\r\n        registeredVoters[_voterID] = true;\r\n        registeredVoterIDs.push(_voterID); // Add voter ID to the list\r\n    }\r\n\r\n    function vote(uint256 voterID, uint256 candidateId) public returns (bool success) {\r\n        require(registeredVoters[voterID], \"You are not registered\");\r\n        require(candidateId < candidateCount, \"Candidate does not exist\");\r\n\r\n        // Ensure the voter has not voted already for this position\r\n        CandidateInfo storage candidate = candidates[candidateId];\r\n        require(\r\n            !hasVotedForPosition[voterID][candidate.position],\r\n            \"You have already voted for this position\"\r\n        );\r\n\r\n        // Link voter to the candidate they voted for\r\n        voterVotes[voterID] = candidateId;\r\n        hasVotedForPosition[voterID][candidate.position] = true;\r\n\r\n        // Increase vote count for the selected candidate\r\n        candidate.voteCount++;\r\n        return true;\r\n    }\r\n\r\n    function getCandidate(uint256 candidateId)\r\n        public\r\n        view\r\n        returns (\r\n            string memory name,\r\n            string memory party,\r\n            string memory position,\r\n            uint256 voteCount\r\n        )\r\n    {\r\n        require(candidateId < candidateCount, \"Candidate does not exist\");\r\n\r\n        CandidateInfo memory candidate = candidates[candidateId];\r\n        return (\r\n            candidate.name,\r\n            candidate.party,\r\n            candidate.position,\r\n            candidate.voteCount\r\n        );\r\n    }\r\n\r\n    function checkIfVotedForPosition(uint256 voterID, string memory position)\r\n        public\r\n        view\r\n        returns (bool)\r\n    {\r\n        return hasVotedForPosition[voterID][position];\r\n    }\r\n\r\n    // New function to get all registered voter IDs\r\n    function getRegisteredVoters() public view returns (uint256[] memory) {\r\n        return registeredVoterIDs;\r\n    }\r\n\r\n    // Function to get the candidate ID a specific voter voted for\r\n    function getVoterVote(uint256 voterID) public view returns (uint256) {\r\n        return voterVotes[voterID];\r\n    }\r\n      function getTotalVoterCount() public view returns (uint256) {\r\n        return registeredVoterIDs.length;\r\n    }\r\n}\r\n",
  "sourcePath": "C:\\Users\\Dell\\Desktop\\votingwithID\\contracts\\hello.sol",
  "compiler": {
    "name": "solc",
    "version": "0.8.0+commit.c7dfd78e.Emscripten.clang"
  },
  "schemaVersion": "3.4.16",
  "updatedAt": "2025-01-15T10:48:53.191Z",
  "networkType": "ethereum",
  "devdoc": {
    "kind": "dev",
    "methods": {},
    "version": 1
  },
  "userdoc": {
    "kind": "user",
    "methods": {},
    "version": 1
  }
}